:100000000C943E010C9467010C9467010C946701F9
:100010000C9467010C9467010C9467010C946701C0
:100020000C9467010C9467010C9467010C946701B0
:100030000C9467010C9467010C9467010C946701A0
:100040000C9467010C9467010C940C020C946701EA
:100050000C9467010C9467010C9467010C94670180
:100060000C9467010C946701B302E002E0025E02A7
:1000700071028402E002E002E002E002E002E0023B
:10008000E002E002E002E002C802E002E002E00278
:10009000E002E002E002E002E002E002E002E00250
:1000A000E002E002E002E002E002E002E002E00240
:1000B000E002E002E002E002E002E002E002E00230
:1000C000E002E002E002E002E002E002E002E00220
:1000D0009902E002E0029C02E002E002E002E0029B
:1000E000E002E002E002A202E002E002E002E0023E
:1000F000E002A2029F02E002E002E002E002A402AB
:100100006B0770079307930793079307930793076A
:1001100093079307750793077A0793079307930746
:1001200093079307930793077F0793079307840722
:1001300093079307930793079307930789079307F9
:10014000930793078E074E414E494E495459494EE5
:1001500046CDCCCC3D0AD7233C17B7D13877CC2B32
:10016000329595E6241FB14F0A000020410000C8D7
:100170004200401C4620BCBE4CCA1B0E5AAEC59D58
:100180007400407A10F35A00A0724E18090010A5AE
:10019000D4E80000E87648170000E40B54020000A1
:1001A000CA9A3B000000E1F5050000809698000027
:1001B0000040420F000000A0860100000010270050
:1001C000000000E803000000006400000000000AD6
:1001D00000000000000100000000002C76D888DC40
:1001E000674F0823DFC1DFAE59E1B1B796E5E3E41D
:1001F00053C63AE651997696E8E6C28426EB898C96
:100200009B62ED407C6FFCEFBC9C9F40F2BAA56FF7
:10021000A5F490055A2AF75C936B6CF9676DC11BC6
:10022000FCE0E40D47FEF520E6B500D0ED902E038E
:1002300000943577050080841E080000204E0A00D7
:100240000000C80C333333330F986E12831141EF23
:100250008D2114893BE65516CFFEE6DB18D1844B81
:10026000381BF77C1D901DA4BBE424203284725EF1
:10027000228100C9F124ECA1E53D270011241FBE15
:10028000CFEFD8E0DEBFCDBF14BE0FB6F894A8956F
:1002900080916000886180936000109260000FBEC2
:1002A00017E0A0E0B1E0E2E3F0E302C005900D92B8
:1002B000AA33B107D9F728E0AAE3B7E001C01D923D
:1002C000A336B207E1F70E94CF070C9417180C94DD
:1002D0000000E0ECF0E080818823ECF78091C6001C
:1002E0000895E0ECF0E0908195FFFDCF8093C6008B
:1002F00008950F931F93CF93FC018081882359F0B9
:100300008F01C0E00E947101CF5FF801EC0FF11D79
:1003100080818111F7CFCF911F910F9108950F9395
:100320001F93CF93DF93FC0120812A3071F0EC0101
:100330008E010E94690189938D3041F00E94710104
:100340008E0188818A30A1F701C08C01F8011082EA
:10035000DF91CF911F910F91089580E391E00E946A
:10036000790182E391E00E947901089581E40E947D
:1003700071018BE10E9471018BE50E94710182E3A2
:100380000E9471018AE40E9471018BE10E94710157
:100390008BE50E94710188E40E9471010895519AD1
:1003A00050981092C5009CE09093C400813019F0E1
:1003B000823039F00CC0E0ECF0E080818260808314
:1003C0000BC0E2ECF0E080818064808305C0E0EC4B
:1003D000F0E080818D7F8083662329F0E1ECF0E0FE
:1003E000808180688083E1ECF0E080818861808397
:1003F000E2ECF0E08081866080830E94B60184E3B5
:1004000091E00E9479010E94AD010E94AD0188E453
:1004100091E00E94790108951F920F920FB60F92FA
:1004200011240F931F932F933F934F935F936F93D9
:100430007F938F939F93AF93BF93CF93DF93EF936C
:10044000FF93F8940E94B6010E940C0D809146071C
:10045000909147070097B9F48FEC97E00197F1F777
:1004600000C0000081E090E090934707809346072A
:1004700090934507809344078FEC97E00197F1F73D
:1004800000C00000B7C0019709F0B4C00E94690124
:1004900008EB1BE0C4E6D0E00E94290D8093D20750
:1004A000E091D2078E2F90E0FC01BD97EC34F1056E
:1004B00008F086C0EC5CFF4F0C9431121092490793
:1004C000109248070E94B6010E940C0D1092470737
:1004D0001092460781E090E090934507809344078F
:1004E00080C0C1E0D0E0D0934907C09348070E9484
:1004F000B6010E940C0D1092470710924607D09348
:100500004507C09344076DC082E090E0909349078F
:10051000809348070E94B6010E940C0D1092470775
:100520001092460781E090E090934507809344073E
:1005300058C00E94D30D4EC00E94E30E4BC00E94D3
:10054000740F48C00E9444010E94B6010E940C0D25
:10055000109247071092460781E090E0909345077C
:10056000809344073EC08091060190910701845614
:10057000910929F0909307018093060104C0D0935C
:100580000701C09306010E94B6010E940C0D22C013
:1005900080910601909107018C599F4F893B2BE078
:1005A00092072CF4909307018093060104C01093E6
:1005B0000701009306010E94B6010E940C0D0AC0BB
:1005C0000E94B6010E940C0D8FEC97E00197F1F7A5
:1005D00000C000008091440790914507892B09F4E1
:1005E0005BCF9FEF20E782E0915020408040E1F711
:1005F00000C0000010924507109244079FEF20E7CB
:1006000082E0915020408040E1F700C00000FF915F
:10061000EF91DF91CF91BF91AF919F918F917F919A
:100620006F915F914F913F912F911F910F910F907B
:100630000FBE0F901F90189517B881E080937E0031
:10064000EAE7F0E080818768808310927B00ECE726
:10065000F0E080818064808382E691E00E947901ED
:100660000E94AD010E94AD0108954F925F926F927A
:100670007F928F929F92AF92BF920F931F93CF93CF
:10068000DF93CDB7DEB76C970FB6F894DEBF0FBE21
:10069000CDBF5C014B018FEC97E00197F1F700C0F3
:1006A0000000F501EE0FFF1FEC5DFE4F8081918190
:1006B0008130910509F07EC0A0927C00EAE7F0E06D
:1006C0008081806C80838FEC97E00197F1F700C008
:1006D0000000808184FFFDCF6091780070917900E7
:1006E000737080E090E00E94EE102AE939E941EA57
:1006F00050E40E94A51120E030EC4FE754E40E9442
:100700007C102EEA37E441EE5DE30E940A1020914E
:100710004E0730914F0740915007509151070E946A
:100720000B10F501EE0FFF1FEE0FFF1FE45FFE4FF2
:1007300020813181428153810E940B10462E572E19
:10074000682E792E20E030E0A9010E9477108823DE
:1007500024F4412C512C612C712C8E01075F1F4F0A
:1007600023E044E0642D752D862D972D0E945912AB
:100770004AE0BE016F5F7F4FC5010E94AA138A94B1
:10078000892819F58DE292E00E947901CE01019647
:100790000E94790183E494E00E947901C8010E94DB
:1007A000790185E791E00E947901542D452D362D80
:1007B000272D14C0892B71F4EAE7F0E08081808353
:1007C00050E040E030E82FEB09C0542D452D362D88
:1007D000272D04C050E040E030E020E0652F742F6A
:1007E000832F922F6C960FB6F894DEBF0FBECDBF4D
:1007F000DF91CF911F910F91BF90AF909F908F90FD
:100800007F906F905F904F9008950F931F93CF93B9
:10081000DF93CDB7DEB764970FB6F894DEBF0FBE97
:10082000CDBF8EE480937C008FEC97E00197F1F7C9
:1008300000C00000EAE7F0E08081806C80838FECEC
:1008400097E00197F1F700C00000808184FFFDCFA1
:10085000209178008091790030E0382B032E000C35
:10086000440B550B64EB7BE281E190E00E94121295
:10087000CA01B9010E94F01020E030E04AE754E4D8
:100880000E947C102EEA37E441EE5DE30E940A10DC
:100890008E010F5F1F4F23E042E00E945912C801F2
:1008A0000E94790186E791E00E94790164960FB673
:1008B000F894DEBF0FBECDBFDF91CF911F910F9196
:1008C00008954F925F926F927F92AF92BF92CF92B4
:1008D000DF92EF92FF920F931F93CF93DF93CDB7E9
:1008E000DEB764970FB6F894DEBF0FBECDBF8C01A4
:1008F0006A017B01590185E394E00E947901F801C6
:10090000408851886288738820E030E040E85FEBDF
:10091000C301B2010E947710811105C088E791E000
:100920000E9479013FC020E030E040E05FE3C30176
:10093000B2010E947710882374F420E030E0A9010E
:10094000C301B2010E94A01188232CF08EE791E030
:100950000E94790127C020E030E040E05FE3C3015E
:10096000B2010E94A01188237CF020E030E040E03A
:1009700050E4C301B2010E94771088232CF484E86C
:1009800091E00E9479010EC020E030E040E050E4A8
:10099000C301B2010E94A011882324F08AE891E0EB
:1009A0000E94790181E494E00E947901F801448871
:1009B00055886688778820E030E040E85FEBC30127
:1009C000B2010E947710811105C088E791E00E9472
:1009D00079013FC020E030E040E05FE3C301B201B5
:1009E0000E947710882374F420E030E0A901C3014D
:1009F000B2010E94A01188232CF08EE791E00E94A2
:100A0000790127C020E030E040E05FE3C301B2019C
:100A10000E94A01188237CF020E030E040E050E408
:100A2000C301B2010E94771088232CF484E891E07E
:100A30000E9479010EC020E030E040E050E4C301A4
:100A4000B2010E94A011882324F08AE891E00E945C
:100A500079010E94AD010E94AD0189E394E00E94FA
:100A60007901F801448455846684778420E030E07D
:100A700040E85FEBC301B2010E947710811105C00D
:100A800088E791E00E9479013FC020E030E040E03B
:100A90005FE3C301B2010E947710882374F420E061
:100AA00030E0A901C301B2010E94A01188232CF0FB
:100AB0008EE791E00E94790127C020E030E040E01D
:100AC0005FE3C301B2010E94A01188237CF020E003
:100AD00030E040E050E4C301B2010E947710882367
:100AE0002CF484E891E00E9479010EC020E030E00F
:100AF00040E050E4C301B2010E94A011882324F019
:100B00008AE891E00E94790180E991E00E947901F0
:100B1000F801408051806280738020E030E040E83E
:100B20005FEBC301B2010E947710811105C088E715
:100B300091E00E9479013FC020E030E040E05FE3B7
:100B4000C301B2010E947710882374F420E030E0E2
:100B5000A901C301B2010E94A01188232CF08EE7E5
:100B600091E00E94790127C020E030E040E05FE39F
:100B7000C301B2010E94A01188237CF020E030E084
:100B800040E050E4C301B2010E94771088232CF4A6
:100B900084E891E00E9479010EC020E030E040E05E
:100BA00050E4C301B2010E94A011882324F08AE816
:100BB00091E00E9479010E94AD010E94AD0185E3A0
:100BC00094E00E947901F801408451846284738426
:100BD00020E030E040E85FEBC301B2010E947710F3
:100BE000811105C088E791E00E9479013FC020E0B3
:100BF00030E040E05FE3C301B2010E947710882338
:100C000074F420E030E0A901C301B2010E94A011F8
:100C100088232CF08EE791E00E94790127C020E024
:100C200030E040E05FE3C301B2010E94A0118823DD
:100C30007CF020E030E040E050E4C301B2010E94CB
:100C4000771088232CF484E891E00E9479010EC08B
:100C500020E030E040E050E4C301B2010E94A01166
:100C6000882324F08AE891E00E94790181E494E0ED
:100C70000E947901F801448055806680778020E0E9
:100C800030E040E85FEBC301B2010E9477108111B0
:100C900005C088E791E00E9479013FC020E030E084
:100CA00040E05FE3C301B2010E947710882374F42F
:100CB00020E030E0A901C301B2010E94A011882305
:100CC0002CF08EE791E00E94790127C020E030E00F
:100CD00040E05FE3C301B2010E94A01188237CF0D1
:100CE00020E030E040E050E4C301B2010E94771000
:100CF00088232CF484E891E00E9479010EC020E062
:100D000030E040E050E4C301B2010E94A01188230A
:100D100024F08AE891E00E9479010E94AD010E94CE
:100D2000AD018CE991E00E9479012DEC3CEC4CE4A2
:100D30005DE3C701B6010E947C102B013C0120E05D
:100D400030E040E752E40E94A011882344F00F2EC7
:100D5000412C512CF0E76F2EF2E47F2EF02D8E0106
:100D60000F5F1F4F21E042E0C301B2010E94591200
:100D7000C8010E94790180EB0E9471018EEA91E026
:100D80000E9479012DEC3CEC4CE45EE3C701B60116
:100D90000E94771018162CF010924B0710924A07F9
:100DA00046C02DEC3CEC4CE45EE3C701B6010E946A
:100DB000A01118168CF420E030E040E05FE3C7019A
:100DC000B6010E94771018163CF081E090E09093F5
:100DD0004B0780934A072BC020E030E040E05FE300
:100DE000C701B6010E94A01118168CF420E030E073
:100DF00040E050E4C701B6010E94771018163CF09D
:100E000082E090E090934B0780934A0710C020E067
:100E100030E040E050E4C701B6010E94A01118166E
:100E200034F483E090E090934B0780934A07A11439
:100E3000B10439F484E190E090934D0780934C071E
:100E400036C0F1E0AF16B10439F486E190E090933A
:100E50004D0780934C072BC082E0A816B10439F4EB
:100E600081E290E090934D0780934C0720C0E3E02F
:100E7000AE16B10439F488E290E090934D07809368
:100E80004C0715C0F4E0AF16B10439F48CE290E0E1
:100E900090934D0780934C070AC085E0A816B104D3
:100EA00031F48BE090E090934D0780934C070E94C3
:100EB000AD010E94AD018EEB91E00E947901E091BD
:100EC0004C07F0914D073A97E332F10560F5E05891
:100ED000FF4F0C94311281ED91E00E94790127C0FF
:100EE00087ED91E00E94790122C08CED91E00E9493
:100EF00079011DC081EE91E00E94790118C08BEE4E
:100F000091E00E94790113C081EF91E00E94790184
:100F10000EC080E092E00E94790109C08BEF91E061
:100F20000E94790104C085E092E00E94790183E18A
:100F300092E00E94790180914A0790914B0782309C
:100F4000910551F08330910561F0019779F486E1C4
:100F500092E00E9479010EC08CE192E00E9479013A
:100F600009C085E292E00E94790104C08BE292E020
:100F70000E94790164960FB6F894DEBF0FBECDBF14
:100F8000DF91CF911F910F91FF90EF90DF90CF9065
:100F9000BF90AF907F906F905F904F900895CF93E8
:100FA000DF93CDB7DEB72E970FB6F894DEBF0FBE36
:100FB000CDBF88E880936100F8942FEF86E191E13E
:100FC000215080409040E1F700C000000E94B6012F
:100FD0000E94AD010E94AD0161E081E00E94CF015D
:100FE000AFEFB6E1E1E1A150B040E040E1F700C071
:100FF00000000E94AD010E94AD010E941C03FFEFA2
:1010000024E38CE0F15020408040E1F700C0000074
:101010000E940C0D9FEFA1EEB4E09150A040B040B3
:10102000E1F700C000008FE292E00E947901EFEF4B
:10103000F6E721E0E150F0402040E1F700C0000079
:101040008EE20E9471018FEF93EFA1E081509040FA
:10105000A040E1F700C000008EE20E947101BFEFE6
:10106000E0E7F2E0B150E040F040E1F700C00000FE
:101070008EE20E9471012FEF84E39CE021508040BA
:101080009040E1F700C000000F2EF3ED4F2EF7E087
:101090005F2EF02D0F2EF0E36F2EF1E07F2EF02D5E
:1010A0008091480790914907009709F004C30E9476
:1010B000B6010E940C0D60E070E080E090E00E94BC
:1010C0003503D2016D937D938D939C93139702E525
:1010D00017E023E044E00E94591260E070E081E0F4
:1010E00090E00E943503F2016483758386839783C1
:1010F00006E617E023E044E00E94591260E070E049
:1011000082E090E00E943503D20118966D937D93A2
:101110008D939C931B970AE717E023E044E00E941D
:10112000591260E070E083E090E00E943503F20124
:1011300064877587868797870EE817E023E044E089
:101140000E94591260E070E084E090E00E94350354
:10115000D20150966D937D938D939C93539702EAA1
:1011600017E023E044E00E94591260E070E085E05F
:1011700090E00E943503F201648B758B868B978B10
:1011800006EB17E023E044E00E94591288E392E066
:101190000E9479010E94AD010E94AD018090EF078D
:1011A0009090F007A0900801B0900901C0900A014A
:1011B000D0900B01E0903E07F0903F070091400770
:1011C0001091410720915B0830915C0840913A07EB
:1011D00050913B0760913C0770913D07C2010E940E
:1011E000610410923A0710923B0710923C0710924C
:1011F0003D0710925C0810925B0810924307109212
:10120000420710923E0710923F071092400710923B
:1012100041078AE999E9A1EBB0E480930801909332
:101220000901A0930A01B0930B011092F0071092EC
:10123000EF070E94AD010E94AD0186E692E00E9498
:1012400079010E94AD0184E992E00E94790120E0D9
:1012500030E040E85FEBD2016D917D918D919C91E2
:101260000E947710811105C089E992E00E947901FE
:1012700008C082E597E00E94790183EA92E00E942B
:10128000790188EA92E00E94790120E030E040E8AC
:101290005FEBF20164817581868197810E947710EE
:1012A000811105C089E992E00E94790108C086E6B3
:1012B00097E00E94790183EA92E00E9479018DEA29
:1012C00092E00E94790120E030E040E85FEBD2013B
:1012D00018966D917D918D919C911B970E9477102E
:1012E000811105C089E992E00E94790108C08AE76E
:1012F00097E00E94790183EA92E00E9479010E94BE
:10130000AD0182EB92E00E94790120E030E040E8FC
:101310005FEBF20164857585868597850E9477105D
:10132000811105C089E992E00E94790108C08EE828
:1013300097E00E94790183EA92E00E94790187EBAD
:1013400092E00E94790120E030E040E85FEBD201BA
:1013500050966D917D918D919C9153970E9477103D
:10136000811105C089E992E00E94790108C082EAF2
:1013700097E00E94790183EA92E00E9479018CEB68
:1013800092E00E94790120E030E040E85FEBF2015A
:1013900064897589868997890E947710811105C0B3
:1013A00089E992E00E94790108C086EB97E00E94EB
:1013B000790183EA92E00E9479010E94AD01809058
:1013C0003E0790903F07A0904007B0904107F091F2
:1013D0003A07F98320913B072A8380913C078B834E
:1013E00090913D079C83A0915B08AD83B0915C0810
:1013F000BE833090080120900901E0900A01F0902E
:101400000B01E091EF07EF83F091F007F88782017D
:10141000C12CD12CDE86CD865A8649867C866B8689
:101420007E2C5F2CD801CD90DD90ED90FD908D014C
:10143000A7019601C501B4010E940B104B015C018C
:1014400029813A814B815C81C701B6010E94A011BC
:10145000181644F4BD85BD83EE85EE83C982DA8219
:10146000EB82FC82232D322D472D552DC701B6016D
:101470000E947710882344F4FD85FF832E852887FA
:101480003C2C2D2C7E2C5F2C8D859E8501969E8775
:101490008D87069739F6E72C6B847C84F52C49847C
:1014A0005A84832D922DAE2DBF2D809308019093E9
:1014B0000901A0930A01B0930B019F819093EF075C
:1014C000A885A093F00789819A81AB81BC81809324
:1014D0003A0790933B07A0933C07B0933D07BD812B
:1014E000B0935B08EE81E0935C0880923E07909297
:1014F0003F07A0924007B09241070E94AD0181ECE6
:1015000092E00E94790160913A0770913B078091C7
:101510003C0790913D0703EF17E023E044E00E9471
:1015200059124AE067EE77E080915B0890915C0881
:101530000E94AA1387EE97E00E9479018EEC92E058
:101540000E947901C8010E94790186E791E00E941A
:1015500079012091420730914307E4E2F1E0819163
:101560009191019711F42F5F3F4FE615F705B9F7F9
:10157000309343072093420720E030E040EC50E4F2
:1015800060913E0770913F0780914007909141071D
:101590000E947C106B017C0120E030E040E85FEBB2
:1015A0000E947710882349F0C0923E07D0923F07EF
:1015B000E0924007F092410708C010923E07109257
:1015C0003F0710924007109241070E94AD0180EE44
:1015D00092E00E94790160913E0770913F078091EF
:1015E00040079091410707E018E023E044E00E94A3
:1015F0005912C8010E94790186E791E00E947901A1
:101600000E94AD018FEF92E00E94790120E030E06E
:1016100040E85FEB609108017091090180910A0137
:1016200090910B010E947710811108C0109208015F
:101630001092090110920A0110920B0160910801A9
:101640007091090180910A0190910B010EEB17E056
:1016500023E044E00E9459124AE066EB77E0809173
:10166000EF079091F0070E94AA1386EB97E00E9483
:1016700079018CE093E00E947901C8010E94790110
:1016800086E791E00E9479010E94AD010E94AD01C0
:101690008EE193E00E9479010E94AD018CE493E019
:1016A0000E9479010E940504809106019091070132
:1016B0000E94010D9DC18130910509F052C18FE951
:1016C0009FE00197F1F700C0000060E070E080E06B
:1016D00090E00E943503D2016D937D938D939C938E
:1016E000139702E517E023E044E00E94591260E0FE
:1016F00070E081E090E00E943503F201648375831D
:101700008683978306E617E023E044E00E9459129F
:1017100060E070E082E090E00E943503D20118960C
:101720006D937D938D939C931B970AE717E023E0BD
:1017300044E00E94591260E070E083E090E00E9473
:101740003503F20164877587868797870EE817E06F
:1017500023E044E00E94591260E070E084E090E0F1
:101760000E943503D20150966D937D938D939C9387
:10177000539702EA17E023E044E00E94591260E028
:1017800070E085E090E00E943503F201648B758B78
:10179000868B978B06EB17E023E044E00E945912FA
:1017A0002DEC3CEC4CE45DE360913A0770913B0713
:1017B00080913C0790913D070E947C106B017C0159
:1017C00020E030E040E752E40E94A01188234CF46E
:1017D000C0921B08D0921C08E0921D08F0921E08CF
:1017E0000CC080E090E0A0E7B2E480931B089093E7
:1017F0001C08A0931D08B0931E0860911B087091EF
:101800001C0880911D0890911E0807E418E021E053
:1018100042E00E945912C8010E94790180EB0E94A7
:1018200071018EEA91E00E947901C0903A07D09050
:101830003B07E0903C07F0903D072DEC3CEC4CE47E
:101840005EE3C701B6010E94771018162CF01092C3
:101850004B0710924A0746C02DEC3CEC4CE45EE38B
:10186000C701B6010E94A01118168CF420E030E0E8
:1018700040E05FE3C701B6010E94771018163CF004
:1018800081E090E090934B0780934A072BC020E0C3
:1018900030E040E05FE3C701B6010E94A0111816D6
:1018A0008CF420E030E040E050E4C701B6010E9433
:1018B000771018163CF082E090E090934B078093ED
:1018C0004A0710C020E030E040E050E4C701B60114
:1018D0000E94A011181634F483E090E090934B0717
:1018E00080934A0780915B0890915C08009739F4D7
:1018F00084E190E090934D0780934C0779C081304C
:10190000910539F4A6E1B0E0B0934D07A0934C07E0
:101910006FC08230910539F4E1E2F0E0F0934D07B9
:10192000E0934C0765C08330910539F488E290E07C
:1019300090934D0780934C075BC08430910539F438
:10194000ACE2B0E0B0934D07A0934C0751C00597AF
:1019500009F04EC0EBE0F0E0F0934D07E0934C0748
:1019600047C0029709F044C083E494E00E947901E3
:1019700061E070E080E090E00E94350389E593E04B
:101980000E94790161E070E081E090E00E943503FF
:1019900089E593E00E94790161E070E082E090E0E7
:1019A0000E94350389E593E00E94790161E070E0CF
:1019B00083E090E00E94350389E593E00E9479017D
:1019C00061E070E084E090E00E94350389E593E0F7
:1019D0000E94790161E070E085E090E00E943503AB
:1019E0000E94AD018FEC97E00197F1F700C0000075
:1019F0007894AFE3BCE91197F1F700C00000F894C8
:101A00004FCB009741F0EFECF7E03197F1F700C0D2
:101A100000000197C1F708950E94AD018DE593E0A4
:101A20000E9479010E94AD018BE893E00E94790148
:101A30000E94AD018DE593E00E9479010E94AD0105
:101A400089EB93E00E9479010E94AD010E94AD01F3
:101A50000895CF930E94AD0186ED93E00E94790135
:101A60000E94AD0189EE93E00E9479010E94AD01D0
:101A700087E194E00E9479010E94AD0185E494E041
:101A80000E9479010E94AD0187E194E00E947901F2
:101A90000E94AD0183E794E00E9479010E94AD01AC
:101AA0000E94AD0181EA94E00E9479010E94AD019B
:101AB0008091480790914907892B29F482EB94E0A3
:101AC0000E94790104C088E394E00E9479018FEBC1
:101AD00094E00E9479010E94AD01809148079091A5
:101AE0004907019729F482EB94E00E94790104C030
:101AF00088E394E00E94790181ED94E00E947901ED
:101B00000E94AD018091480790914907029729F4FE
:101B100082EB94E00E94790104C088E394E00E9483
:101B2000790184EE94E00E9479010E94AD010E9447
:101B3000AD0187EF94E00E9479010E94AD0185E23A
:101B400095E00E9479010E94AD018EE295E00E942D
:101B500079010E94AD018CE495E00E9479010E9418
:101B6000AD0183E695E00E9479010E94AD0185E711
:101B700095E00E9479010E94AD010E94AD0188E8C4
:101B800095E00E9479010E94AD010E94AD018CEBAD
:101B900094E00E9479010E946901C82F0E9471019E
:101BA0008C2FCF9108950F931F93CF93DF9388E0ED
:101BB00090E00E947912EC0188E090E00E94791296
:101BC0008C010E94AD018FEA95E00E9479010E948C
:101BD000AD0181ED95E00E9479010E94AD018FEE8B
:101BE00095E00E9479010E94AD018DE096E00E948F
:101BF00079010E94AD018DE296E00E9479010E9478
:101C0000AD010E94AD018CEB94E00E9479010E942D
:101C100069018233B9F118F4813341F0C8C08333CC
:101C200009F472C0823609F4ACC0C1C081E30E94DD
:101C300071010E94AD010E94AD0183E496E00E9413
:101C400079010E94AD018CEB94E00E947901CE01F4
:101C50000E948F01CE010E94A61320E030E04AE7E7
:101C600054E40E947C1060934E0770934F0780935A
:101C70005007909351070E94AD010E94B6010E9447
:101C80000C0D9CC082E30E9471010E94AD010E9474
:101C9000AD018AE696E00E9479010E94AD018CEBCD
:101CA00094E00E9479010E946901C82F0E9471018D
:101CB0000E94AD010E94AD018EE896E00E9479017C
:101CC0000E94AD018CEB94E00E947901C8010E9452
:101CD0008F01C8010E94A613D0E0CC0FDD1FCC0FEE
:101CE000DD1FC45BDF4F20E030E04AE754E40E9490
:101CF0007C10688379838A839B830E94AD010E9454
:101D0000B6010E940C0D5AC083E30E9471010E942B
:101D1000AD010E94AD0188EB96E00E9479010E941E
:101D2000AD018CEB94E00E9479010E946901C82FFB
:101D30000E9471018C2F90E0C097FC01EE0FFF1FF5
:101D4000EC5DFE4F208131812130310541F4880F57
:101D5000991FFC01EC5DFE4F118210820BC0232BFA
:101D600049F4880F991FFC01EC5DFE4F81E090E083
:101D7000918380830E94AD010E94B6010E940C0DE8
:101D80001DC08FEC97E00197F1F700C0000082E6DC
:101D90000E9471010E94AD010E94B6010E940C0DCB
:101DA0008FEC97E00197F1F700C0000007C08FECBF
:101DB00097E00197F1F700C0000029CFDF91CF91A4
:101DC0001F910F910895CF93DF9388E090E00E94D8
:101DD0007912EC010E94AD018FEA95E00E94790131
:101DE0000E94AD0181ED95E00E9479010E94AD0154
:101DF0008FEE95E00E9479010E94AD018DE296E0A0
:101E00000E9479010E94AD010E94AD018CEB94E02B
:101E10000E9479010E946901823359F1823609F4E6
:101E200047C0813309F056C00E9471010E94AD0184
:101E30000E94AD0183E496E00E9479010E94AD0109
:101E40008CEB94E00E947901CE010E948F01CE01BB
:101E50000E94A61320E030E04AE754E40E947C1080
:101E600060934E0770934F078093500790935107EC
:101E700038C082E30E94710186EE96E00E947901EB
:101E80008FE19EE40197F1F700C0000093B7917FC6
:101E9000946093BF93B7916093BF889593B79E7FEB
:101EA00093BF8FEC97E00197F1F700C00000B2CF2D
:101EB0008FEC97E00197F1F700C0000082E60E94E6
:101EC00071010E94AD018FEC97E00197F1F700C01E
:101ED000000007C08FEC97E00197F1F700C0000009
:101EE00099CFDF91CF9108958AE00E9471018DE032
:101EF0000E94710186E097E00E9479018AE00E94C9
:101F000071018DE00E94710180E297E00E947901E9
:101F10008AE00E9471018DE00E9471018AE297E0DF
:101F20000E9479018AE00E9471018DE00E94710196
:101F30008DE296E00E9479018AE00E9471018DE0B5
:101F40000E9471018AE00E9471018DE00E9471017E
:101F50008CEB94E00E9479010E946901823321F1A7
:101F6000823609F440C0813309F04DC00E947101EE
:101F700086EE96E00E9479018FE19EE40197F1F7E9
:101F800000C0000083B7817F866083BF83B7816014
:101F900083BF889583B78E7F83BF8FEC97E00197CF
:101FA000F1F700C00000D8CF82E30E94710186EEF5
:101FB00096E00E9479018FE19EE40197F1F700C05D
:101FC000000083B7817F846083BF83B7816083BF54
:101FD000889583B78E7F83BF8FEC97E00197F1F7E9
:101FE00000C00000B9CF8FEC97E00197F1F700C077
:101FF000000082E60E9471018FEC97E00197F1F7F3
:1020000000C0000008958FEC97E00197F1F700C041
:102010000000A2CF5058BB27AA270E9422100C9480
:1020200066110E94581138F00E945F1120F039F4B7
:102030009F3F19F426F40C9455110EF4E095E7FB3C
:102040000C944F11E92F0E94771158F3BA176207C9
:1020500073078407950720F079F4A6F50C9499117D
:102060000EF4E0950B2EBA2FA02D0B01B9019001B3
:102070000C01CA01A0011124FF27591B99F0593FF7
:1020800050F4503E68F11A16F040A22F232F342F3F
:102090004427585FF3CF469537952795A795F0408D
:1020A0005395C9F77EF41F16BA0B620B730B840BA2
:1020B000BAF09150A1F0FF0FBB1F661F771F881F5A
:1020C000C2F70EC0BA0F621F731F841F48F48795B2
:1020D00077956795B795F7959E3F08F0B0CF9395A4
:1020E000880F08F09927EE0F9795879508950E941D
:1020F0002B1108F481E008950E9490100C94661151
:102100000E945F1158F00E94581140F029F45F3F7F
:1021100029F00C944F1151110C949A110C945511F3
:102120000E94771168F39923B1F3552391F3951B1E
:10213000550BBB27AA2762177307840738F09F5FE8
:102140005F4F220F331F441FAA1FA9F335D00E2E55
:102150003AF0E0E832D091505040E695001CCAF7C2
:102160002BD0FE2F29D0660F771F881FBB1F261785
:1021700037074807AB07B0E809F0BB0B802DBF015C
:10218000FF2793585F4F3AF09E3F510578F00C942B
:102190004F110C949A115F3FE4F3983ED4F3869567
:1021A00077956795B795F7959F5FC9F7880F911D4C
:1021B0009695879597F90895E1E0660F771F881F38
:1021C000BB1F621773078407BA0720F0621B730BEB
:1021D000840BBA0BEE1F88F7E0950895E89409C0C8
:1021E00097FB3EF490958095709561957F4F8F4F4A
:1021F0009F4F9923A9F0F92F96E9BB279395F69560
:10220000879577956795B795F111F8CFFAF4BB0FDD
:1022100011F460FF1BC06F5F7F4F8F4F9F4F16C041
:10222000882311F096E911C0772321F09EE8872FCB
:10223000762F05C0662371F096E8862F70E060E087
:102240002AF09A95660F771F881FDAF7880F969500
:10225000879597F90895990F0008550FAA0BE0E8A4
:10226000FEEF16161706E807F907C0F01216130658
:10227000E407F50798F0621B730B840B950B39F498
:102280000A2661F0232B242B252B21F408950A26FE
:1022900009F4A140A6958FEF811D811D089597F93E
:1022A0009F6780E870E060E008959FEF80EC0895FC
:1022B00000240A9416161706180609060895002425
:1022C0000A9412161306140605060895092E03949F
:1022D000000C11F4882352F0BB0F40F4BF2B11F413
:1022E00060FF04C06F5F7F4F8F4F9F4F089557FD72
:1022F0009058440F551F59F05F3F71F04795880F74
:1023000097FB991F61F09F3F79F08795089512160A
:1023100013061406551FF2CF4695F1DF08C01616B6
:1023200017061806991FF1CF869571056105089467
:102330000895E894BB2766277727CB0197F908957E
:102340000E942B1108F48FEF08950E94B8110C948D
:1023500066110E94581138F00E945F1120F09523F9
:1023600011F00C944F110C94551111240C949A11E6
:102370000E94771170F3959FC1F3950F50E0551FA0
:10238000629FF001729FBB27F00DB11D639FAA27CA
:10239000F00DB11DAA1F649F6627B00DA11D661F19
:1023A000829F2227B00DA11D621F739FB00DA11D3A
:1023B000621F839FA00D611D221F749F3327A00DF4
:1023C000611D231F849F600D211D822F762F6A2F90
:1023D00011249F5750409AF0F1F088234AF0EE0FF5
:1023E000FF1FBB1F661F771F881F91505040A9F722
:1023F0009E3F510580F00C944F110C949A115F3F51
:10240000E4F3983ED4F3869577956795B795F7955D
:10241000E7959F5FC1F7FE2B880F911D96958795D5
:1024200097F90895052E97FB1EF400940E94291237
:1024300057FD07D00E94371207FC03D04EF40C94CE
:10244000291250954095309521953F4F4F4F5F4F42
:10245000089590958095709561957F4F8F4F9F4F10
:102460000895EE0FFF1F0590F491E02D0994A1E26D
:102470001A2EAA1BBB1BFD010DC0AA1FBB1FEE1FFE
:10248000FF1FA217B307E407F50720F0A21BB30B49
:10249000E40BF50B661F771F881F991F1A9469F7C5
:1024A00060957095809590959B01AC01BD01CF0121
:1024B0000895EF920F931F93CF93DF93E80147FDA9
:1024C00002C034E001C034E1E42F440FFF0BF7FFFA
:1024D00003C0F195E195F109E32E022F2E2FAE01F5
:1024E0000E94CF13CE01DF91CF911F910F91EF90FA
:1024F0000895CF93DF938230910510F482E090E04D
:10250000E0915F08F091600820E030E0C0E0D0E0AA
:10251000309711F14081518148175907C0F0481791
:10252000590761F482819381209719F09B838A83F4
:102530002BC09093600880935F0826C02115310559
:1025400019F04217530718F49A01BE01DF01EF0199
:102550000280F381E02DDCCF2115310509F1281B24
:10256000390B2430310590F412968D919C9113977C
:102570006115710521F0FB019383828304C0909360
:10258000600880935F08FD01329644C0FD01E20FB0
:10259000F31F81939193225031092D933C933AC0BC
:1025A00020915D0830915E08232B41F420910201B7
:1025B0003091030130935E0820935D082091000163
:1025C000309101012115310541F42DB73EB74091FD
:1025D000040150910501241B350BE0915D08F09139
:1025E0005E08E217F307A0F42E1B3F0B28173907EC
:1025F00078F0AC014E5F5F4F2417350748F04E0F5F
:102600005F1F50935E0840935D088193919302C0D1
:10261000E0E0F0E0CF01DF91CF9108950F931F9399
:10262000CF93DF93009709F48CC0FC01329713829B
:10263000128200915F08109160080115110581F464
:1026400020813181820F931F20915D0830915E08B7
:102650002817390779F5F0935E08E0935D0871C09B
:10266000D80140E050E0AE17BF0750F412962D910C
:102670003C911397AD012115310509F1D901F3CF33
:102680009D01DA013383228360817181860F971F58
:102690008217930769F4EC0128813981260F371FCF
:1026A0002E5F3F4F318320838A819B819383828376
:1026B000452B29F4F0936008E0935F0842C013961D
:1026C000FC93EE931297ED01499159919E01240FCD
:1026D000351FE217F30771F480819181840F951FF4
:1026E000029611969C938E938281938113969C936C
:1026F0008E931297E0E0F0E0D80112968D919C91B4
:102700001397009719F0F8018C01F6CF8D919C91E9
:1027100098012E5F3F4F820F931F20915D083091EB
:102720005E082817390769F4309729F41092600879
:1027300010925F0802C01382128210935E08009309
:102740005D08DF91CF911F910F910895662777273C
:102750000C945D15BB274A3031F4992322F4BDE275
:10276000909581959F4F0C94B613BB27FB0155277D
:10277000AA27880F991FAA1FA41710F0A41B8395DE
:102780005051B9F7A05DAA3308F0A95DA193009755
:1027900079F7B111B1931192CB010C94B3174F9209
:1027A0005F926F927F929F92AF92BF92CF92DF9291
:1027B000EF92FF920F931F93CF93DF93CDB7DEB7C6
:1027C00029970FB6F894DEBF0FBECDBF6A01122F56
:1027D000B02E2BE3201720F0FF24F394F00E02C05C
:1027E000BCE3FB2E0F2D27E0AE014F5F5F4F0E9431
:1027F000BA16AC018981982F9970913031F0E1FCC3
:1028000006C0E0FE06C090E205C09DE203C09BE268
:1028100001C090E0EE2DE07183FF3CC0911102C039
:1028200083E001C084E0811718F4212F281B01C028
:1028300020E0E1110BC0F601822F30E2882319F06D
:1028400031938150FBCFC20ED11C20E0992329F097
:10285000D6019C93F60131966F01C6010396E2FE04
:102860000AC03EE4D6013C9341E411964C93119783
:1028700012963C9306C03EE6F601308341E6418362
:102880003283FC01322F40E2332309F442C04193EA
:102890003150FACF82FF44C0911102C083E001C0E1
:1028A00084E0811718F4212F281B01C020E0E111DA
:1028B0000BC0F601822F30E2882319F0319381504A
:1028C000FBCFC20ED11C20E0992329F0D6019C93A6
:1028D000F60131966F01C6010396E2FE0BC039E4A2
:1028E000D6013C933EE411963C93119736E4129640
:1028F0003C9307C039E6F60130833EE6318336E685
:102900003283FC01322F40E2332319F041933150DE
:10291000FBCFFC01E20FF11D10828EEF9FEFB7C0DD
:10292000F1E0911101C0F0E06F2F70E01416150670
:1029300024F49A012F5F3F4F02C021E030E0260FC0
:10294000371FBB2029F06B2D70E06F5F7F4F02C0F7
:1029500060E070E0260F371F612F70E02617370701
:102960001CF4121B212F01C020E03E2D387159F4B8
:10297000D601322F60E2332319F06D933150FBCF33
:10298000C20ED11C20E0FF2331F0D6019C93B6018A
:102990006F5F7F4F6B01E1110BC0F601922F30E3A7
:1029A000992319F031939150FBCFC20ED11C20E036
:1029B0009F2D940F3A81782F7071A72E84FF03C04A
:1029C000313309F49150191624F4993018F098E035
:1029D00001C091E0E42F852F57FF02C0E0E080E0C6
:1029E0006E2F782FE0E0F0E0AEE29A2E3A01691AFD
:1029F00071082A01461A570A0B2D10E0119501950E
:102A000011096F3F8FEF780729F4D6019C92C60118
:102A100001966C014617570784F0661677066CF42A
:102A20007F01E40CF51CA1E0B0E0AC0FBD1FEA0E85
:102A3000FB1ED7011196BC9002C090E3B92E6150E5
:102A400071093196C60101967C016017710724F067
:102A5000D601BC926C01D5CF6417750741F43633AB
:102A600020F4353321F4A11002C081E3B82EF60121
:102A7000B082F701822F90E2882319F09193815060
:102A8000FBCFF701E20FF11D108280E090E0299664
:102A90000FB6F894DEBF0FBECDBFDF91CF911F916F
:102AA0000F91FF90EF90DF90CF90BF90AF909F90ED
:102AB0007F906F905F904F900895A0E0B0E0E3E6C4
:102AC000F5E10C94D517EC017B016115710519F046
:102AD000DB018D939C938E010F5F1F4F7880872DB4
:102AE00090E00E949217892B11F0E801F4CFBDE22B
:102AF0007B1205C00F5F1F4F7980C1E008C0EBE279
:102B00007E1204C08E010E5F1F4F7980C0E0680105
:102B1000F1E0CF1AD10843E050E06EE471E0C60165
:102B20000E949B17892BF1F4680122E0C20ED11C90
:102B300045E050E069E471E0C6010E949B17892BD3
:102B400021F4680187E0C80ED11CE114F10419F0EA
:102B5000D701CD92DC92C111FFC060E070E080E847
:102B60009FE703C143E050E066E471E0C6010E94C4
:102B70009B17892B51F4E114F10409F4F2C00E5FA4
:102B80001F4FF70111830083ECC0680160E070E023
:102B9000CB0100E010E0F601D0EDD70DDA3058F5AA
:102BA0002C2F2260622E2C2F2870C2FF05C021110D
:102BB00028C00F5F1F4F25C0222311F001501109BB
:102BC000A5E0B0E09B01AC010E94C6174B015C017F
:102BD000880C991CAA1CBB1CC501B4016D0F711D8A
:102BE000811D911D6839A9E97A078A07A9E19A0729
:102BF00040F0C66005C0DE3F51F4C3FD44C0C8606C
:102C00006C2EBFEFCB1ADB0A7080C62DC4CF2D2FE0
:102C10002F7D2531C1F540814D3211F4C06106C0D0
:102C20004B3221F0319621E030E006C03296D601D9
:102C300011964C9122E030E0A0EDA40FAA3018F0DC
:102C4000E21BF30B20C040E050E04038BCE05B07E3
:102C50005CF49A01220F331F220F331F420F531FC0
:102C6000440F551F4A0F511D3196DF0111972C91CA
:102C7000A0EDA20FAA3048F3C4FF03C051954195BF
:102C80005109040F151FC1FF07C0E114F10421F021
:102C90003197D701ED93FC930E94EE10C370C330BF
:102CA00019F06B017C0106C06B017C01F7FAF0940E
:102CB000F7F8F09420E030E0A901C701B6010E94C6
:102CC0007710882309F445C017FF06C011950195B8
:102CD0001109C5E6D1E002C0CDE7D1E05E01B8E15F
:102CE000AB1AB1084601BE2DAF2D90E2E92EF12CB2
:102CF0000E151F0584F0FE012591359145915491E3
:102D0000B4018B2F9A2F0E94A5114B01B82FA92F28
:102D10000E191F09EDCF2497F594E794CA15DB052A
:102D200039F76401EB2EFA2E8E2D880F8F2D881F18
:102D30008F3F49F020E030E0A901C701B6010E94B1
:102D40007710811106C082E290E090936208809330
:102D50006108C701B60109C060E070E080E89FEF3C
:102D600004C060E070E080EC9FE7CDB7DEB7EEE036
:102D70000C94F117283008F027E03327DA01990F77
:102D8000311D87FD916000966105710539F432604F
:102D90002E5F3D9330E32A95E1F708959F3F30F091
:102DA00080387105610509F03C5F3C5F3D939130CF
:102DB00008F08068911DDF93CF931F930F93FF92CC
:102DC000EF92192F987F9695E92F96959695E90F92
:102DD000FF27E552FE4F99273327EE24FF24A70152
:102DE000E70105900894079428F4360FE71EF81EB3
:102DF000491F511D660F771F881F991F0694A1F761
:102E00000590079428F4E70EF81E491F561FC11DB0
:102E1000770F881F991F661F0694A1F705900794E6
:102E200028F4F80E491F561FC71FD11D880F991F80
:102E3000661F771F0694A1F70590079420F4490FA9
:102E4000561FC71FD81F990F661F771F881F06942C
:102E5000A9F784911095177041F0D695C7955795AD
:102E60004795F794E7941A95C1F7E1E8F1E0689483
:102E70001590159135916591959105907FE2739527
:102E8000E118F10A430B560BC90BD009C0F7E10C4E
:102E9000F11E431F561FC91FD01D7EF4703311F45D
:102EA0008A95E6CFE894015030F0080F0AF4002725
:102EB000021708F4202F2395022F7A3328F079E3A4
:102EC0007D932A95E9F710C07D932A9589F606949B
:102ED00097956795379517951794E118F10A430B65
:102EE000560BC90BD00998F023957E9173957A33D0
:102EF00008F070E37C932013B8F77E9170617D93A6
:102F000030F0839571E37D9370E32A95E1F7112406
:102F1000EF90FF900F911F91CF91DF91992787FD3F
:102F20009095089591110C94C317803219F089502F
:102F30008550C8F70895FB01DC014150504088F0EE
:102F40008D9181341CF08B350CF4805E6591613479
:102F50001CF06B350CF4605E861B611171F3990BEC
:102F60000895881BFCCFDC01FC01672F719177234A
:102F7000E1F7329704C07C916D9370836291AE1734
:102F8000BF07C8F308959927882708950E94081855
:102F9000A59F900DB49F900DA49F800D911D1124AD
:102FA00008952F923F924F925F926F927F928F92ED
:102FB0009F92AF92BF92CF92DF92EF92FF920F93C8
:102FC0001F93CF93DF93CDB7DEB7CA1BDB0B0FB6D2
:102FD000F894DEBF0FBECDBF09942A88398848888F
:102FE0005F846E847D848C849B84AA84B984C88425
:102FF000DF80EE80FD800C811B81AA81B981CE0F1C
:10300000D11D0FB6F894DEBF0FBECDBFED01089500
:10301000A29FB001B39FC001A39F700D811D112419
:10302000911DB29F700D811D1124911D0895F8947A
:02303000FFCFD0
:10303200000063082000E8039A99B140EC5168C08F
:10304200000000001F856BC048E16AC048E16AC009
:103052000000000001000100010001000100010068
:103062000A000D005541525420696E697469616C01
:10307200697A65642E2E2E00496E746572727570BF
:10308200747320696E697469616C697A65642E2E45
:103092002E0041444320696E697469616C697A65E6
:1030A200642E2E2E0020560028202D2029002820B4
:1030B2002020290028202A20290028205820290001
:1030C20020202028204C202920202000414E474C3F
:1030D200452D4F462D41545441434B3A2000206127
:1030E20074206D617820766F6C7461676500534956
:1030F200474E414C20444952454354494F4E3A2091
:10310200004E4F525448004E4F525448454153547A
:1031120000534F5554484541535400534F5554485A
:1031220000534F55544857455354004E4F5254483C
:103132005745535400494E44455445524D494E411A
:103142004E54003B20004C49474854004D4F4445E3
:1031520052415445004845415659004E2F410053B3
:1031620074617274696E67002D2D2D2D2D2D2D2DFC
:103172002D2D2D2D2D2D2D2D2D2D2D2D2D2D2D2D7D
:103182002D2D2D2D2D2D2D2D2D2D2D2D2D2D2D2D6D
:103192002D2D2D2D2D00414443202D202D202D207D
:1031A2002D202D202D202D202D202D202D202D20B5
:1031B2002D202D202D202D202D202D202D202D20A5
:1031C2002D202D0041303A20004F4646202020205D
:1031D200202000562020200041313A200041323A7E
:1031E200200041333A200041343A200041353A2050
:1031F20000415F4D41585F4348414E3A2000202034
:10320200202020415F4D41585F564F4C543A2000D8
:1032120020202020202020202020202020202020AC
:103222002020415F4156475F564F4C543A2000419F
:103232005F4D494E5F4348414E3A200020202020F6
:1032420020415F4D494E5F564F4C543A200044494D
:10325200414720202D202D202D202D202D202D20D6
:103262002D202D202D202D202D202D202D202D20F4
:103272002D202D202D202D202D202D00494E54456E
:10328200524E414C5F563A2000207C20003D3D3D8D
:103292003D3D3D3D3D3D3D3D3D3D3D3D3D3D3D3D5C
:1032A2003D3D3D3D3D3D3D3D3D3D3D3D3D3D3D3D4C
:1032B2003D3D3D3D3D3D3D3D3D3D0045453439387B
:1032C200202D2031303031207C2046696265722009
:1032D2004F707469632053656E736F7220666F72EC
:1032E20020437562655361740062793A204A6961CC
:1032F20079692052656E2C204161726F6E20566F83
:103302006C706F6E650050484F544F44494F4445AE
:103312002041525241593A200020202020202020D2
:103322002020202020202020282034202920202076
:103332002820352029202020202020202020202065
:10334200202020202020002020202020202020209B
:10335200202020202020202020202020202020206B
:10336200202020202020202020202020202020205B
:10337200202020200020202020202020202020206B
:10338200282033202920202028202A2029202020FC
:10339200282030202920202020202020202020200A
:1033A200202000202020202020202020202020203B
:1033B20020202820322029202020282031202920C6
:1033C20020202020202020202020202020202020FB
:1033D200004F5045524154494E47204D4F44453AC3
:1033E2002000454E41424C4544202D2D3E20005B9D
:1033F200305D204F76657276696577206D6F646502
:10340200005B315D205465737462656E6368206D84
:103412006F6465005B325D204144432064656275E0
:1034220067206D6F6465002D202D202D202D202D0D
:10343200202D202D202D202D202D202D202D202D22
:10344200202D202D202D202D202D202D202D202D12
:10345200202D202D004F7074696F6E733A005B61EE
:103462005D2041444320636F6E66696775726174C3
:10347200696F6E206F7074696F6E73005B645D209C
:10348200446961676E6F73746963206F7074696FEA
:103492006E73005B705D20506F776572206F707481
:1034A200696F6E73005B725D20536F667477617231
:1034B20065207265736574005B785D204578697478
:1034C20020746F206F7065726174696F6E206D6F0A
:1034D20064652073637265656E2E202E202E000AAD
:1034E2000D53656C656374206120676C6F62616C5B
:1034F200206F6666736574206F7074696F6E3A2010
:10350200005B315D20476C6F62616C204144432057
:10351200766F6C74616765206F6666736574005BB5
:10352200325D20414443206368616E6E656C206F9A
:103532006666736574206F6666736574005B335DDF
:1035420020456E61626C652F64697361626C6520EF
:10355200414443206368616E6E656C73005B625D1B
:10356200204261636B20746F206D61696E206D650E
:103572006E7500456E746572206120676C6F6261C2
:103582006C20766F6C74616765206F666673657414
:103592003A2028696E206D562900456E74657220A6
:1035A20061206368616E6E656C20746F2063686170
:1035B2006E67653A20283020746F20352900456EE9
:1035C20074657220746865206368616E6E656C2034
:1035D200766F6C74616765206F66667365743A20F6
:1035E20028696E206D562900456E7465722061202F
:1035F2006368616E6E656C20746F20746F67676CB0
:1036020065204F4E206F72204F46463A20283020C8
:10361200746F203529000A0D50726573732068613A
:1036220072647761726520627574746F6E20746F54
:103632002077616B65000A0D53656C6563742061C8
:1036420020736C656570206F7074696F6E3A20002C
:103652005B315D20536C656570005B325D20506F9D
:0A36620077657220646F776E000038
:00000001FF
